{
  "contractName": "Merchant",
  "abi": [
    {
      "constant": true,
      "inputs": [],
      "name": "sellerCount",
      "outputs": [
        {
          "name": "",
          "type": "uint256"
        }
      ],
      "payable": false,
      "stateMutability": "view",
      "type": "function"
    },
    {
      "constant": true,
      "inputs": [],
      "name": "itemCount",
      "outputs": [
        {
          "name": "",
          "type": "uint256"
        }
      ],
      "payable": false,
      "stateMutability": "view",
      "type": "function"
    },
    {
      "constant": true,
      "inputs": [],
      "name": "buyerCount",
      "outputs": [
        {
          "name": "",
          "type": "uint256"
        }
      ],
      "payable": false,
      "stateMutability": "view",
      "type": "function"
    },
    {
      "constant": true,
      "inputs": [
        {
          "name": "",
          "type": "uint256"
        }
      ],
      "name": "items",
      "outputs": [
        {
          "name": "seller_id",
          "type": "uint256"
        },
        {
          "name": "inventory_count",
          "type": "uint256"
        },
        {
          "name": "price",
          "type": "uint256"
        },
        {
          "name": "description",
          "type": "string"
        }
      ],
      "payable": false,
      "stateMutability": "view",
      "type": "function"
    },
    {
      "constant": true,
      "inputs": [
        {
          "name": "",
          "type": "uint256"
        }
      ],
      "name": "sellers",
      "outputs": [
        {
          "name": "id",
          "type": "uint256"
        },
        {
          "name": "tot_money",
          "type": "uint256"
        }
      ],
      "payable": false,
      "stateMutability": "view",
      "type": "function"
    },
    {
      "constant": true,
      "inputs": [
        {
          "name": "",
          "type": "uint256"
        }
      ],
      "name": "buyers",
      "outputs": [
        {
          "name": "id",
          "type": "uint256"
        },
        {
          "name": "tot_money",
          "type": "uint256"
        }
      ],
      "payable": false,
      "stateMutability": "view",
      "type": "function"
    },
    {
      "inputs": [],
      "payable": false,
      "stateMutability": "nonpayable",
      "type": "constructor"
    },
    {
      "constant": false,
      "inputs": [
        {
          "name": "_seller_id",
          "type": "uint256"
        },
        {
          "name": "_inv_count",
          "type": "uint256"
        },
        {
          "name": "_price",
          "type": "uint256"
        },
        {
          "name": "_desc",
          "type": "string"
        }
      ],
      "name": "addNewItem",
      "outputs": [],
      "payable": false,
      "stateMutability": "nonpayable",
      "type": "function"
    },
    {
      "constant": false,
      "inputs": [
        {
          "name": "_item_id",
          "type": "uint256"
        },
        {
          "name": "_new_inventory",
          "type": "uint256"
        }
      ],
      "name": "addInventory",
      "outputs": [],
      "payable": false,
      "stateMutability": "nonpayable",
      "type": "function"
    },
    {
      "constant": false,
      "inputs": [
        {
          "name": "_item_id",
          "type": "uint256"
        }
      ],
      "name": "removeItem",
      "outputs": [],
      "payable": false,
      "stateMutability": "nonpayable",
      "type": "function"
    },
    {
      "constant": false,
      "inputs": [
        {
          "name": "_buyer_id",
          "type": "uint256"
        },
        {
          "name": "_item_id",
          "type": "uint256"
        },
        {
          "name": "_count",
          "type": "uint256"
        }
      ],
      "name": "buyItem",
      "outputs": [],
      "payable": false,
      "stateMutability": "nonpayable",
      "type": "function"
    },
    {
      "constant": false,
      "inputs": [
        {
          "name": "_tot_money",
          "type": "uint256"
        }
      ],
      "name": "addBuyer",
      "outputs": [],
      "payable": false,
      "stateMutability": "nonpayable",
      "type": "function"
    },
    {
      "constant": false,
      "inputs": [
        {
          "name": "_tot_money",
          "type": "uint256"
        }
      ],
      "name": "addSeller",
      "outputs": [],
      "payable": false,
      "stateMutability": "nonpayable",
      "type": "function"
    }
  ],
  "bytecode": "0x608060405234801561001057600080fd5b506000600381905550600060058190555060006001819055506108bb806100386000396000f3fe608060405234801561001057600080fd5b50600436106100b45760003560e01c8063713291711161007157806371329171146102765780639e0cea05146102a4578063bfb231d2146102c2578063ced565b61461037e578063cee26ed5146103ac578063f2aa8218146103f5576100b4565b806310bfc492146100b95780631f6a8318146100e75780632cd498c31461012957806359fa9b1f1461020257806363c4e8de146102205780636bfb0d0114610258575b600080fd5b6100e5600480360360208110156100cf57600080fd5b810190808035906020019092919050505061043e565b005b610127600480360360608110156100fd57600080fd5b81019080803590602001909291908035906020019092919080359060200190929190505050610496565b005b6102006004803603608081101561013f57600080fd5b810190808035906020019092919080359060200190929190803590602001909291908035906020019064010000000081111561017a57600080fd5b82018360208201111561018c57600080fd5b803590602001918460018302840111640100000000831117156101ae57600080fd5b91908080601f016020809104026020016040519081016040528093929190818152602001838380828437600081840152601f19601f82011690508083019250505050505050919291929050505061059a565b005b61020a610625565b6040518082815260200191505060405180910390f35b6102566004803603604081101561023657600080fd5b81019080803590602001909291908035906020019092919050505061062b565b005b610260610658565b6040518082815260200191505060405180910390f35b6102a26004803603602081101561028c57600080fd5b810190808035906020019092919050505061065e565b005b6102ac61067c565b6040518082815260200191505060405180910390f35b6102ee600480360360208110156102d857600080fd5b8101908080359060200190929190505050610682565b6040518085815260200184815260200183815260200180602001828103825283818151815260200191508051906020019080838360005b83811015610340578082015181840152602081019050610325565b50505050905090810190601f16801561036d5780820380516001836020036101000a031916815260200191505b509550505050505060405180910390f35b6103aa6004803603602081101561039457600080fd5b810190808035906020019092919050505061074a565b005b6103d8600480360360208110156103c257600080fd5b81019080803590602001909291905050506107a2565b604051808381526020018281526020019250505060405180910390f35b6104216004803603602081101561040b57600080fd5b81019080803590602001909291905050506107c6565b604051808381526020018281526020019250505060405180910390f35b6040518060400160405280600554815260200182815250600460006005548152602001908152602001600020600082015181600001556020820151816001015590505060056000815480929190600101919050555050565b806000808481526020019081526020016000206001015410156104b857600080fd5b600260008481526020019081526020016000206001015481600080858152602001908152602001600020600201540211156104f257600080fd5b80600080848152602001908152602001600020600101600082825403925050819055506000816000808581526020019081526020016000206002015402905080600260008681526020019081526020016000206001016000828254039250508190555060008060008581526020019081526020016000206000015490508160046000838152602001908152602001600020600101600082825401925050819055505050505050565b604051806080016040528085815260200184815260200183815260200182815250600080600154815260200190815260200160002060008201518160000155602082015181600101556040820151816002015560608201518160030190805190602001906106099291906107ea565b5090505060016000815480929190600101919050555050505050565b60055481565b60015482111561063a57600080fd5b80600080848152602001908152602001600020600101819055505050565b60015481565b60008060008381526020019081526020016000206001018190555050565b60035481565b6000602052806000526040600020600091509050806000015490806001015490806002015490806003018054600181600116156101000203166002900480601f0160208091040260200160405190810160405280929190818152602001828054600181600116156101000203166002900480156107405780601f1061071557610100808354040283529160200191610740565b820191906000526020600020905b81548152906001019060200180831161072357829003601f168201915b5050505050905084565b6040518060400160405280600354815260200182815250600260006003548152602001908152602001600020600082015181600001556020820151816001015590505060036000815480929190600101919050555050565b60046020528060005260406000206000915090508060000154908060010154905082565b60026020528060005260406000206000915090508060000154908060010154905082565b828054600181600116156101000203166002900490600052602060002090601f016020900481019282601f1061082b57805160ff1916838001178555610859565b82800160010185558215610859579182015b8281111561085857825182559160200191906001019061083d565b5b509050610866919061086a565b5090565b61088c91905b80821115610888576000816000905550600101610870565b5090565b9056fea165627a7a7230582013f88268984f70fda7df478d480562b207f134f1ce9a49ea487886b2fe54c05d0029",
  "source": "pragma solidity ^0.5.8;\r\n\r\ncontract Merchant {\r\n\t\r\n\tstruct Item {\r\n\t\tuint seller_id;\r\n\t\tuint inventory_count;  // if 0 : no longer available\r\n\t\tuint price; // in cents so no decimal\r\n\t\tstring description;\r\n\t}\r\n\t\r\n\tmapping(uint => Item) public items;\r\n    uint public itemCount;\r\n\t\r\n    // Model a Player\r\n    struct Buyer {\r\n        uint id;\r\n        uint tot_money;\r\n\t\r\n    }\r\n\tstruct Seller {\r\n\t\tuint id;\r\n\t\tuint tot_money;\r\n\t\t//Item[] list_to_sell;\r\n\t\t//uint num_item_to_sell; //some items are no longer available so the number is the total count sold ever by this seller\r\n\t}\r\n\t\r\n    mapping(uint => Buyer) public buyers;\r\n    uint public buyerCount;\r\n\t\r\n\tmapping(uint => Seller) public sellers;\r\n\tuint public sellerCount;\r\n    \r\n    constructor () public {\r\n        buyerCount = 0;\r\n\t\tsellerCount = 0;\r\n\t\titemCount = 0;\r\n    }\r\n\t\r\n\tfunction addNewItem (uint _seller_id, uint _inv_count, uint _price, string memory _desc) public {\r\n        items[itemCount] = Item( _seller_id, _inv_count, _price, _desc );\r\n\t\titemCount++;\r\n    }\r\n\t\r\n\tfunction addInventory ( uint _item_id, uint _new_inventory ) public { // add inventory to old item\r\n\t\trequire( _item_id <= itemCount ); \r\n\t\titems[_item_id].inventory_count = _new_inventory;\r\n\t}\r\n\t\r\n\tfunction removeItem( uint _item_id ) public {\r\n\t\titems[_item_id].inventory_count = 0;\r\n\t}\r\n\t\r\n\tfunction buyItem( uint _buyer_id, uint _item_id, uint _count ) public {\r\n\t\r\n\t\t// check if enough in inventory_count\r\n\t\trequire( items[_item_id].inventory_count >= _count ); // check enough inventory\r\n\t\t// check if enough money to pay by this buyer\r\n\t\trequire( items[_item_id].price * _count <= buyers[_buyer_id].tot_money ); // check enough money\r\n\t\t\r\n\t\t// reduce inventory\r\n\t\titems[_item_id].inventory_count -= _count;\r\n\t\t\r\n\t\tuint tot_money_xfer = items[_item_id].price * _count;\r\n\t\t// debit the buyer tot_money\r\n\t\tbuyers[_buyer_id].tot_money -= tot_money_xfer;\r\n\t\t// credit the seller\r\n\t\tuint _seller_id = items[_item_id].seller_id;\r\n\t\tsellers[_seller_id].tot_money += tot_money_xfer;\r\n\t}\r\n\r\n    function addBuyer ( uint _tot_money ) public {\r\n\t\r\n\t\tbuyers[buyerCount] = Buyer( buyerCount, _tot_money );\r\n\t\tbuyerCount++;\r\n    }\r\n\t\r\n    function addSeller ( uint _tot_money ) public {\r\n\r\n\t\tsellers[sellerCount] = Seller( sellerCount, _tot_money );\r\n\t\tsellerCount++;\r\n    }\r\n     \r\n    \r\n    \r\n    \r\n\r\n    \r\n}\r\n",
  "sourcePath": "C:/Users/User/blockchain/merchant/contracts/Merchant.sol",
  "compiler": {
    "name": "solc",
    "version": "0.5.8+commit.23d335f2.Emscripten.clang"
  },
  "schemaVersion": "3.0.15",
  "updatedAt": "2019-09-30T23:09:41.625Z",
  "devdoc": {
    "methods": {}
  },
  "userdoc": {
    "methods": {}
  }
}