{
  "contractName": "Gamble",
  "abi": [
    {
      "constant": true,
      "inputs": [],
      "name": "test_num",
      "outputs": [
        {
          "name": "",
          "type": "uint256"
        }
      ],
      "payable": false,
      "stateMutability": "view",
      "type": "function"
    },
    {
      "constant": true,
      "inputs": [],
      "name": "playerCount",
      "outputs": [
        {
          "name": "",
          "type": "uint256"
        }
      ],
      "payable": false,
      "stateMutability": "view",
      "type": "function"
    },
    {
      "constant": true,
      "inputs": [],
      "name": "winning_sel",
      "outputs": [
        {
          "name": "",
          "type": "bool"
        }
      ],
      "payable": false,
      "stateMutability": "view",
      "type": "function"
    },
    {
      "constant": true,
      "inputs": [],
      "name": "tot_money_dealer",
      "outputs": [
        {
          "name": "",
          "type": "uint256"
        }
      ],
      "payable": false,
      "stateMutability": "view",
      "type": "function"
    },
    {
      "constant": true,
      "inputs": [
        {
          "name": "",
          "type": "uint256"
        }
      ],
      "name": "players",
      "outputs": [
        {
          "name": "id",
          "type": "uint256"
        },
        {
          "name": "bet_amt",
          "type": "uint256"
        },
        {
          "name": "tot_money",
          "type": "uint256"
        },
        {
          "name": "bet_select",
          "type": "bool"
        }
      ],
      "payable": false,
      "stateMutability": "view",
      "type": "function"
    },
    {
      "inputs": [],
      "payable": false,
      "stateMutability": "nonpayable",
      "type": "constructor"
    },
    {
      "anonymous": false,
      "inputs": [
        {
          "indexed": false,
          "name": "playerCount",
          "type": "uint256"
        },
        {
          "indexed": false,
          "name": "bet_amt",
          "type": "uint256"
        },
        {
          "indexed": false,
          "name": "tot_money",
          "type": "uint256"
        }
      ],
      "name": "e_addPlayer",
      "type": "event"
    },
    {
      "constant": false,
      "inputs": [
        {
          "name": "_bet_amt",
          "type": "uint256"
        },
        {
          "name": "_tot_money",
          "type": "uint256"
        }
      ],
      "name": "addPlayer",
      "outputs": [],
      "payable": false,
      "stateMutability": "nonpayable",
      "type": "function"
    },
    {
      "constant": false,
      "inputs": [
        {
          "name": "_player_id",
          "type": "uint256"
        },
        {
          "name": "_bet_sel",
          "type": "bool"
        }
      ],
      "name": "placeBet",
      "outputs": [],
      "payable": false,
      "stateMutability": "nonpayable",
      "type": "function"
    },
    {
      "constant": false,
      "inputs": [],
      "name": "run_bet",
      "outputs": [],
      "payable": false,
      "stateMutability": "nonpayable",
      "type": "function"
    }
  ],
  "bytecode": "0x608060405261064a6029556000602a5560be602b5534801561002057600080fd5b506000602a8190555060be602b819055506000602881905550610453806100486000396000f3fe608060405234801561001057600080fd5b50600436106100885760003560e01c806397002e351161005b57806397002e35146101095780639ed9c74d14610141578063c14c24501461017b578063f71d96cb1461018557610088565b806314af87001461008d578063302bcc57146100ab5780636998867c146100c95780637955834a146100eb575b600080fd5b6100956101e0565b6040518082815260200191505060405180910390f35b6100b36101e6565b6040518082815260200191505060405180910390f35b6100d16101ec565b604051808215151515815260200191505060405180910390f35b6100f36101ff565b6040518082815260200191505060405180910390f35b61013f6004803603604081101561011f57600080fd5b810190808035906020019092919080359060200190929190505050610205565b005b6101796004803603604081101561015757600080fd5b810190808035906020019092919080351515906020019092919050505061026e565b005b61018361029e565b005b6101b16004803603602081101561019b57600080fd5b81019080803590602001909291905050506102e1565b604051808581526020018481526020018381526020018215151515815260200194505050505060405180910390f35b60295481565b60285481565b602c60009054906101000a900460ff1681565b602a5481565b6028546000602854600a811061021757fe5b6004020160000181905550816000602854600a811061023257fe5b6004020160010181905550806000602854600a811061024d57fe5b60040201600201819055506028600081548092919060010191905055505050565b80600083600a811061027c57fe5b6004020160030160006101000a81548160ff0219169083151502179055505050565b600042441890506000600182161415602c60006101000a81548160ff0219169083151502179055506102de602c60009054906101000a900460ff16610321565b50565b600081600a81106102ee57fe5b600402016000915090508060000154908060010154908060020154908060030160009054906101000a900460ff16905084565b60008090505b6028548110156104235760006064600083600a811061034257fe5b60040201600101546064602b5403028161035857fe5b049050821515600083600a811061036b57fe5b6004020160030160009054906101000a900460ff16151514156103ba5780600083600a811061039657fe5b600402016002016000828254019250508190555080602a5403602a81905550610415565b600082600a81106103c757fe5b6004020160010154600083600a81106103dc57fe5b6004020160020160008282540392505081905550600082600a81106103fd57fe5b6004020160010154602a600082825401925050819055505b508080600101915050610327565b505056fea165627a7a72305820c4a1aa3be82964e15331fec254dc93f8b2a8a6bf34a291152ae7886929e3571b0029",
  "source": "pragma solidity ^0.5.8;\r\n\r\ncontract Gamble {\r\n    // Model a Player\r\n    struct Player {\r\n        uint id;\r\n        uint bet_amt;\r\n        uint tot_money;\r\n        bool bet_select;  // 1 is true, 0 is false\r\n    }\r\n    Player[10] public players;\r\n    uint public playerCount;\r\n\tuint public test_num = 1610;\r\n    \r\n    // Model the dealer money. Init is 0\r\n    uint256 public tot_money_dealer = 0;\r\n    \r\n    // odd is fixed for now. Should be set to real odd for different selection. Perfect value for case\r\n    // is 2 but that will give 0 profit for dealer. Set to 1.9 so dealer makes money all the time.\r\n    uint odd = 190;  \r\n    \r\n    bool public winning_sel; // randomly selected at each turn: true is head, false is tail\r\n\t\r\n\tevent e_addPlayer(uint playerCount, uint bet_amt,uint tot_money);\r\n\r\n    \r\n\r\n    constructor () public {\r\n        tot_money_dealer = 0;\r\n        odd = 190;\r\n        playerCount = 0;\r\n    }\r\n\r\n    function addPlayer (uint _bet_amt, uint _tot_money) public {\r\n        players[playerCount].id = playerCount;\r\n        players[playerCount].bet_amt = _bet_amt; // this is fixed when selected. If not fixed the odd would vary\r\n        players[playerCount].tot_money = _tot_money;\r\n\t\tplayerCount ++; \r\n\t\t//emit e_addPlayer(playerCount,_bet_amt,_tot_money);\r\n    }\r\n    \r\n    function placeBet( uint _player_id, bool _bet_sel) public {\r\n        // if _player_id not on list, revert here\r\n        players[_player_id].bet_select = _bet_sel;\r\n    }\r\n    \r\n    function run_bet() public {\r\n       uint256 rand = block.difficulty ^ block.timestamp;\r\n       winning_sel = ( (rand & 0x1) != 0 ); // pick bit 0 : 1 true, 0 false\r\n       award_winners(winning_sel);\r\n    }\r\n    \r\n    function award_winners( bool _win_sel ) internal {\r\n        for( uint i=0; i<playerCount; i++ ) {\r\n            uint amt_won_lost = ( (odd-100)*players[i].bet_amt )/100;\r\n            if( players[i].bet_select == _win_sel) {\r\n                // his money up, dealer money down\r\n                players[i].tot_money += amt_won_lost;\r\n                tot_money_dealer = tot_money_dealer - amt_won_lost;\r\n            } else {\r\n                // his money down, dealer money up\r\n                players[i].tot_money -= players[i].bet_amt;\r\n                tot_money_dealer += players[i].bet_amt;\r\n            }\r\n        }\r\n    }\r\n\r\n    \r\n}\r\n",
  "sourcePath": "C:/Users/User/blockchain/gamble/contracts/Gamble.sol",
  "compiler": {
    "name": "solc",
    "version": "0.5.8+commit.23d335f2.Emscripten.clang"
  },
  "schemaVersion": "3.0.15",
  "updatedAt": "2019-09-26T00:43:38.659Z",
  "devdoc": {
    "methods": {}
  },
  "userdoc": {
    "methods": {}
  }
}